{
  "_format": "hh-sol-artifact-1",
  "contractName": "NFTToken",
  "sourceName": "src/contracts/NFTToken.sol",
  "abi": [
    {
      "inputs": [
        {
          "internalType": "string",
          "name": "_name",
          "type": "string"
        },
        {
          "internalType": "string",
          "name": "_symbol",
          "type": "string"
        },
        {
          "internalType": "string",
          "name": "_initBaseURI",
          "type": "string"
        }
      ],
      "stateMutability": "nonpayable",
      "type": "constructor"
    },
    {
      "anonymous": false,
      "inputs": [
        {
          "indexed": true,
          "internalType": "address",
          "name": "owner",
          "type": "address"
        },
        {
          "indexed": true,
          "internalType": "address",
          "name": "approved",
          "type": "address"
        },
        {
          "indexed": true,
          "internalType": "uint256",
          "name": "tokenId",
          "type": "uint256"
        }
      ],
      "name": "Approval",
      "type": "event"
    },
    {
      "anonymous": false,
      "inputs": [
        {
          "indexed": true,
          "internalType": "address",
          "name": "owner",
          "type": "address"
        },
        {
          "indexed": true,
          "internalType": "address",
          "name": "operator",
          "type": "address"
        },
        {
          "indexed": false,
          "internalType": "bool",
          "name": "approved",
          "type": "bool"
        }
      ],
      "name": "ApprovalForAll",
      "type": "event"
    },
    {
      "anonymous": false,
      "inputs": [
        {
          "indexed": true,
          "internalType": "address",
          "name": "previousOwner",
          "type": "address"
        },
        {
          "indexed": true,
          "internalType": "address",
          "name": "newOwner",
          "type": "address"
        }
      ],
      "name": "OwnershipTransferred",
      "type": "event"
    },
    {
      "anonymous": false,
      "inputs": [
        {
          "indexed": false,
          "internalType": "uint256",
          "name": "id",
          "type": "uint256"
        },
        {
          "indexed": true,
          "internalType": "address",
          "name": "buyer",
          "type": "address"
        },
        {
          "indexed": false,
          "internalType": "uint256",
          "name": "cost",
          "type": "uint256"
        },
        {
          "indexed": true,
          "internalType": "string",
          "name": "tokenURI",
          "type": "string"
        },
        {
          "indexed": false,
          "internalType": "uint256",
          "name": "timestamp",
          "type": "uint256"
        }
      ],
      "name": "Sale",
      "type": "event"
    },
    {
      "anonymous": false,
      "inputs": [
        {
          "indexed": true,
          "internalType": "address",
          "name": "from",
          "type": "address"
        },
        {
          "indexed": true,
          "internalType": "address",
          "name": "to",
          "type": "address"
        },
        {
          "indexed": true,
          "internalType": "uint256",
          "name": "tokenId",
          "type": "uint256"
        }
      ],
      "name": "Transfer",
      "type": "event"
    },
    {
      "inputs": [
        {
          "internalType": "uint256",
          "name": "_tokenId",
          "type": "uint256"
        }
      ],
      "name": "airdropNFT",
      "outputs": [],
      "stateMutability": "nonpayable",
      "type": "function"
    },
    {
      "inputs": [
        {
          "internalType": "address",
          "name": "to",
          "type": "address"
        },
        {
          "internalType": "uint256",
          "name": "tokenId",
          "type": "uint256"
        }
      ],
      "name": "approve",
      "outputs": [],
      "stateMutability": "nonpayable",
      "type": "function"
    },
    {
      "inputs": [
        {
          "internalType": "address",
          "name": "owner",
          "type": "address"
        }
      ],
      "name": "balanceOf",
      "outputs": [
        {
          "internalType": "uint256",
          "name": "",
          "type": "uint256"
        }
      ],
      "stateMutability": "view",
      "type": "function"
    },
    {
      "inputs": [],
      "name": "baseExtension",
      "outputs": [
        {
          "internalType": "string",
          "name": "",
          "type": "string"
        }
      ],
      "stateMutability": "view",
      "type": "function"
    },
    {
      "inputs": [],
      "name": "baseImage",
      "outputs": [
        {
          "internalType": "string",
          "name": "",
          "type": "string"
        }
      ],
      "stateMutability": "view",
      "type": "function"
    },
    {
      "inputs": [
        {
          "internalType": "uint256",
          "name": "_tokenId",
          "type": "uint256"
        }
      ],
      "name": "burnNFTT",
      "outputs": [],
      "stateMutability": "nonpayable",
      "type": "function"
    },
    {
      "inputs": [],
      "name": "cost",
      "outputs": [
        {
          "internalType": "uint256",
          "name": "",
          "type": "uint256"
        }
      ],
      "stateMutability": "view",
      "type": "function"
    },
    {
      "inputs": [],
      "name": "getAllNFTs",
      "outputs": [
        {
          "components": [
            {
              "internalType": "uint256",
              "name": "id",
              "type": "uint256"
            },
            {
              "internalType": "address",
              "name": "buyer",
              "type": "address"
            },
            {
              "internalType": "uint256",
              "name": "cost",
              "type": "uint256"
            },
            {
              "internalType": "string",
              "name": "imageURL",
              "type": "string"
            },
            {
              "internalType": "uint256",
              "name": "timestamp",
              "type": "uint256"
            }
          ],
          "internalType": "struct NFTToken.SaleStruct[]",
          "name": "",
          "type": "tuple[]"
        }
      ],
      "stateMutability": "view",
      "type": "function"
    },
    {
      "inputs": [
        {
          "internalType": "uint256",
          "name": "tokenId",
          "type": "uint256"
        }
      ],
      "name": "getAnNFT",
      "outputs": [
        {
          "components": [
            {
              "internalType": "uint256",
              "name": "id",
              "type": "uint256"
            },
            {
              "internalType": "address",
              "name": "buyer",
              "type": "address"
            },
            {
              "internalType": "uint256",
              "name": "cost",
              "type": "uint256"
            },
            {
              "internalType": "string",
              "name": "imageURL",
              "type": "string"
            },
            {
              "internalType": "uint256",
              "name": "timestamp",
              "type": "uint256"
            }
          ],
          "internalType": "struct NFTToken.SaleStruct",
          "name": "",
          "type": "tuple"
        }
      ],
      "stateMutability": "view",
      "type": "function"
    },
    {
      "inputs": [
        {
          "internalType": "uint256",
          "name": "tokenId",
          "type": "uint256"
        }
      ],
      "name": "getApproved",
      "outputs": [
        {
          "internalType": "address",
          "name": "",
          "type": "address"
        }
      ],
      "stateMutability": "view",
      "type": "function"
    },
    {
      "inputs": [
        {
          "internalType": "address",
          "name": "owner",
          "type": "address"
        },
        {
          "internalType": "address",
          "name": "operator",
          "type": "address"
        }
      ],
      "name": "isApprovedForAll",
      "outputs": [
        {
          "internalType": "bool",
          "name": "",
          "type": "bool"
        }
      ],
      "stateMutability": "view",
      "type": "function"
    },
    {
      "inputs": [],
      "name": "maxSupply",
      "outputs": [
        {
          "internalType": "uint256",
          "name": "",
          "type": "uint256"
        }
      ],
      "stateMutability": "view",
      "type": "function"
    },
    {
      "inputs": [],
      "name": "name",
      "outputs": [
        {
          "internalType": "string",
          "name": "",
          "type": "string"
        }
      ],
      "stateMutability": "view",
      "type": "function"
    },
    {
      "inputs": [],
      "name": "owner",
      "outputs": [
        {
          "internalType": "address",
          "name": "",
          "type": "address"
        }
      ],
      "stateMutability": "view",
      "type": "function"
    },
    {
      "inputs": [
        {
          "internalType": "uint256",
          "name": "tokenId",
          "type": "uint256"
        }
      ],
      "name": "ownerOf",
      "outputs": [
        {
          "internalType": "address",
          "name": "",
          "type": "address"
        }
      ],
      "stateMutability": "view",
      "type": "function"
    },
    {
      "inputs": [],
      "name": "paused",
      "outputs": [
        {
          "internalType": "bool",
          "name": "",
          "type": "bool"
        }
      ],
      "stateMutability": "view",
      "type": "function"
    },
    {
      "inputs": [
        {
          "internalType": "address",
          "name": "to",
          "type": "address"
        },
        {
          "internalType": "uint256",
          "name": "amount",
          "type": "uint256"
        }
      ],
      "name": "payTo",
      "outputs": [],
      "stateMutability": "nonpayable",
      "type": "function"
    },
    {
      "inputs": [],
      "name": "payToMint",
      "outputs": [],
      "stateMutability": "payable",
      "type": "function"
    },
    {
      "inputs": [],
      "name": "renounceOwnership",
      "outputs": [],
      "stateMutability": "nonpayable",
      "type": "function"
    },
    {
      "inputs": [
        {
          "internalType": "address",
          "name": "from",
          "type": "address"
        },
        {
          "internalType": "address",
          "name": "to",
          "type": "address"
        },
        {
          "internalType": "uint256",
          "name": "tokenId",
          "type": "uint256"
        }
      ],
      "name": "safeTransferFrom",
      "outputs": [],
      "stateMutability": "nonpayable",
      "type": "function"
    },
    {
      "inputs": [
        {
          "internalType": "address",
          "name": "from",
          "type": "address"
        },
        {
          "internalType": "address",
          "name": "to",
          "type": "address"
        },
        {
          "internalType": "uint256",
          "name": "tokenId",
          "type": "uint256"
        },
        {
          "internalType": "bytes",
          "name": "data",
          "type": "bytes"
        }
      ],
      "name": "safeTransferFrom",
      "outputs": [],
      "stateMutability": "nonpayable",
      "type": "function"
    },
    {
      "inputs": [
        {
          "internalType": "address",
          "name": "operator",
          "type": "address"
        },
        {
          "internalType": "bool",
          "name": "approved",
          "type": "bool"
        }
      ],
      "name": "setApprovalForAll",
      "outputs": [],
      "stateMutability": "nonpayable",
      "type": "function"
    },
    {
      "inputs": [
        {
          "internalType": "string",
          "name": "_newBaseURI",
          "type": "string"
        }
      ],
      "name": "setBaseURI",
      "outputs": [],
      "stateMutability": "nonpayable",
      "type": "function"
    },
    {
      "inputs": [
        {
          "internalType": "bool",
          "name": "_state",
          "type": "bool"
        }
      ],
      "name": "setPause",
      "outputs": [],
      "stateMutability": "nonpayable",
      "type": "function"
    },
    {
      "inputs": [
        {
          "internalType": "bytes4",
          "name": "interfaceId",
          "type": "bytes4"
        }
      ],
      "name": "supportsInterface",
      "outputs": [
        {
          "internalType": "bool",
          "name": "",
          "type": "bool"
        }
      ],
      "stateMutability": "view",
      "type": "function"
    },
    {
      "inputs": [],
      "name": "symbol",
      "outputs": [
        {
          "internalType": "string",
          "name": "",
          "type": "string"
        }
      ],
      "stateMutability": "view",
      "type": "function"
    },
    {
      "inputs": [
        {
          "internalType": "uint256",
          "name": "tokenId",
          "type": "uint256"
        }
      ],
      "name": "toImage",
      "outputs": [
        {
          "internalType": "string",
          "name": "",
          "type": "string"
        }
      ],
      "stateMutability": "view",
      "type": "function"
    },
    {
      "inputs": [
        {
          "internalType": "uint256",
          "name": "index",
          "type": "uint256"
        }
      ],
      "name": "tokenByIndex",
      "outputs": [
        {
          "internalType": "uint256",
          "name": "",
          "type": "uint256"
        }
      ],
      "stateMutability": "view",
      "type": "function"
    },
    {
      "inputs": [
        {
          "internalType": "address",
          "name": "owner",
          "type": "address"
        },
        {
          "internalType": "uint256",
          "name": "index",
          "type": "uint256"
        }
      ],
      "name": "tokenOfOwnerByIndex",
      "outputs": [
        {
          "internalType": "uint256",
          "name": "",
          "type": "uint256"
        }
      ],
      "stateMutability": "view",
      "type": "function"
    },
    {
      "inputs": [
        {
          "internalType": "uint256",
          "name": "tokenId",
          "type": "uint256"
        }
      ],
      "name": "tokenURI",
      "outputs": [
        {
          "internalType": "string",
          "name": "",
          "type": "string"
        }
      ],
      "stateMutability": "view",
      "type": "function"
    },
    {
      "inputs": [],
      "name": "totalSupply",
      "outputs": [
        {
          "internalType": "uint256",
          "name": "",
          "type": "uint256"
        }
      ],
      "stateMutability": "view",
      "type": "function"
    },
    {
      "inputs": [
        {
          "internalType": "address",
          "name": "from",
          "type": "address"
        },
        {
          "internalType": "address",
          "name": "to",
          "type": "address"
        },
        {
          "internalType": "uint256",
          "name": "tokenId",
          "type": "uint256"
        }
      ],
      "name": "transferFrom",
      "outputs": [],
      "stateMutability": "nonpayable",
      "type": "function"
    },
    {
      "inputs": [
        {
          "internalType": "address",
          "name": "newOwner",
          "type": "address"
        }
      ],
      "name": "transferOwnership",
      "outputs": [],
      "stateMutability": "nonpayable",
      "type": "function"
    }
  ],
  "bytecode": "0x60c0604052600560808190526402e776562760dc1b60a09081526200002891600c9190620001dc565b5060408051808201909152600580825264173539b7b760d91b60209092019182526200005791600d91620001dc565b5066038d7ea4c68000600e556063600f556010805460ff191690553480156200007f57600080fd5b5060405162002c7d38038062002c7d833981016040819052620000a2916200034f565b825183908390620000bb906000906020850190620001dc565b508051620000d1906001906020840190620001dc565b505050620000ee620000e86200010260201b60201c565b62000106565b620000f98162000158565b5050506200041d565b3390565b600a80546001600160a01b038381166001600160a01b0319831681179093556040519116919082907f8be0079c531659141344cd1fd0a4f28419497f9722a3daafe3b4186f6b6457e090600090a35050565b620001626200017b565b80516200017790600b906020840190620001dc565b5050565b600a546001600160a01b03163314620001da5760405162461bcd60e51b815260206004820181905260248201527f4f776e61626c653a2063616c6c6572206973206e6f7420746865206f776e6572604482015260640160405180910390fd5b565b828054620001ea90620003e0565b90600052602060002090601f0160209004810192826200020e576000855562000259565b82601f106200022957805160ff191683800117855562000259565b8280016001018555821562000259579182015b82811115620002595782518255916020019190600101906200023c565b50620002679291506200026b565b5090565b5b808211156200026757600081556001016200026c565b634e487b7160e01b600052604160045260246000fd5b600082601f830112620002aa57600080fd5b81516001600160401b0380821115620002c757620002c762000282565b604051601f8301601f19908116603f01168101908282118183101715620002f257620002f262000282565b816040528381526020925086838588010111156200030f57600080fd5b600091505b8382101562000333578582018301518183018401529082019062000314565b83821115620003455760008385830101525b9695505050505050565b6000806000606084860312156200036557600080fd5b83516001600160401b03808211156200037d57600080fd5b6200038b8783880162000298565b94506020860151915080821115620003a257600080fd5b620003b08783880162000298565b93506040860151915080821115620003c757600080fd5b50620003d68682870162000298565b9150509250925092565b600181811c90821680620003f557607f821691505b602082108114156200041757634e487b7160e01b600052602260045260246000fd5b50919050565b612850806200042d6000396000f3fe6080604052600436106101ee5760003560e01c80636352211e1161010d578063ae43bbed116100a0578063c87b56dd1161006f578063c87b56dd1461055e578063d5abeb011461057e578063e0391b0914610594578063e985e9c5146105b6578063f2fde38b146105ff57600080fd5b8063ae43bbed146104e9578063b88d4fde14610509578063bedb86fb14610529578063c66828621461054957600080fd5b80638da5cb5b116100dc5780638da5cb5b146104765780638fc58f231461049457806395d89b41146104b4578063a22cb465146104c957600080fd5b80636352211e1461040157806370a0823114610421578063715018a6146104415780637bf086211461045657600080fd5b80632f745c5911610185578063509c718011610154578063509c71801461039257806355f804b31461039a5780635c975abb146103ba57806360249a94146103d457600080fd5b80632f745c5914610312578063338d8dc51461033257806342842e0e146103525780634f6ccce71461037257600080fd5b8063095ea7b3116101c1578063095ea7b31461029757806313faede6146102b957806318160ddd146102dd57806323b872dd146102f257600080fd5b806301ffc9a7146101f357806303b0f38d1461022857806306fdde031461024a578063081812fc1461025f575b600080fd5b3480156101ff57600080fd5b5061021361020e366004612124565b61061f565b60405190151581526020015b60405180910390f35b34801561023457600080fd5b5061023d61064a565b60405161021f9190612199565b34801561025657600080fd5b5061023d6106d8565b34801561026b57600080fd5b5061027f61027a3660046121ac565b61076a565b6040516001600160a01b03909116815260200161021f565b3480156102a357600080fd5b506102b76102b23660046121e1565b610791565b005b3480156102c557600080fd5b506102cf600e5481565b60405190815260200161021f565b3480156102e957600080fd5b506008546102cf565b3480156102fe57600080fd5b506102b761030d36600461220b565b6108ac565b34801561031e57600080fd5b506102cf61032d3660046121e1565b6108de565b34801561033e57600080fd5b5061023d61034d3660046121ac565b610974565b34801561035e57600080fd5b506102b761036d36600461220b565b6109d5565b34801561037e57600080fd5b506102cf61038d3660046121ac565b6109f0565b6102b7610a83565b3480156103a657600080fd5b506102b76103b53660046122d3565b610d0d565b3480156103c657600080fd5b506010546102139060ff1681565b3480156103e057600080fd5b506103f46103ef3660046121ac565b610d2c565b60405161021f919061236b565b34801561040d57600080fd5b5061027f61041c3660046121ac565b610e83565b34801561042d57600080fd5b506102cf61043c36600461237e565b610ee3565b34801561044d57600080fd5b506102b7610f69565b34801561046257600080fd5b506102b76104713660046121e1565b610f7d565b34801561048257600080fd5b50600a546001600160a01b031661027f565b3480156104a057600080fd5b506102b76104af3660046121ac565b61101a565b3480156104c057600080fd5b5061023d61104c565b3480156104d557600080fd5b506102b76104e43660046123a9565b61105b565b3480156104f557600080fd5b506102b76105043660046121ac565b611066565b34801561051557600080fd5b506102b76105243660046123dc565b611094565b34801561053557600080fd5b506102b7610544366004612458565b6110cc565b34801561055557600080fd5b5061023d6110e7565b34801561056a57600080fd5b5061023d6105793660046121ac565b6110f4565b34801561058a57600080fd5b506102cf600f5481565b3480156105a057600080fd5b506105a96111bb565b60405161021f9190612473565b3480156105c257600080fd5b506102136105d13660046124d5565b6001600160a01b03918216600090815260056020908152604080832093909416825291909152205460ff1690565b34801561060b57600080fd5b506102b761061a36600461237e565b6112e1565b60006001600160e01b0319821663780e9d6360e01b1480610644575061064482611357565b92915050565b600c8054610657906124ff565b80601f0160208091040260200160405190810160405280929190818152602001828054610683906124ff565b80156106d05780601f106106a5576101008083540402835291602001916106d0565b820191906000526020600020905b8154815290600101906020018083116106b357829003601f168201915b505050505081565b6060600080546106e7906124ff565b80601f0160208091040260200160405190810160405280929190818152602001828054610713906124ff565b80156107605780601f1061073557610100808354040283529160200191610760565b820191906000526020600020905b81548152906001019060200180831161074357829003601f168201915b5050505050905090565b6000610775826113a7565b506000908152600460205260409020546001600160a01b031690565b600061079c82610e83565b9050806001600160a01b0316836001600160a01b0316141561080f5760405162461bcd60e51b815260206004820152602160248201527f4552433732313a20617070726f76616c20746f2063757272656e74206f776e656044820152603960f91b60648201526084015b60405180910390fd5b336001600160a01b038216148061082b575061082b81336105d1565b61089d5760405162461bcd60e51b815260206004820152603d60248201527f4552433732313a20617070726f76652063616c6c6572206973206e6f7420746f60448201527f6b656e206f776e6572206f7220617070726f76656420666f7220616c6c0000006064820152608401610806565b6108a78383611406565b505050565b6108b7335b82611474565b6108d35760405162461bcd60e51b81526004016108069061253a565b6108a78383836114f3565b60006108e983610ee3565b821061094b5760405162461bcd60e51b815260206004820152602b60248201527f455243373231456e756d657261626c653a206f776e657220696e646578206f7560448201526a74206f6620626f756e647360a81b6064820152608401610806565b506001600160a01b03919091166000908152600660209081526040808320938352929052205490565b60606000610980611664565b905060008151116109a057604051806020016040528060008152506109ce565b806109aa84611673565b600c6040516020016109be93929190612587565b6040516020818303038152906040525b9392505050565b6108a783838360405180602001604052806000815250611094565b60006109fb60085490565b8210610a5e5760405162461bcd60e51b815260206004820152602c60248201527f455243373231456e756d657261626c653a20676c6f62616c20696e646578206f60448201526b7574206f6620626f756e647360a01b6064820152608401610806565b60088281548110610a7157610a7161264b565b90600052602060002001549050919050565b6000610a8e60085490565b60105490915060ff1615610add5760405162461bcd60e51b81526020600482015260166024820152754e46547320756e646572206d61696e74656e616e636560501b6044820152606401610806565b600f548110610b2e5760405162461bcd60e51b815260206004820181905260248201527f536f7272792c20616c6c204e4654732068617665206265656e206d696e7465646044820152606401610806565b60003411610b765760405162461bcd60e51b8152602060048201526015602482015274457468657220746f6f206c6f77206d696e74696e6760581b6044820152606401610806565b600a546001600160a01b03163314610bd257600e54341015610bd25760405162461bcd60e51b8152602060048201526015602482015274457468657220746f6f206c6f77206d696e74696e6760581b6044820152606401610806565b610be633610be1836001612677565b611710565b60116040518060a00160405280836001610c009190612677565b8152336020820152346040820152606001610c1f61034d856001612677565b81524260209182015282546001808201855560009485529382902083516005909202019081558282015193810180546001600160a01b0319166001600160a01b03909516949094179093556040820151600284015560608201518051929392610c8e9260038501920190612075565b5060809190910151600490910155610caa610579826001612677565b604051610cb7919061268f565b604051908190039020337fb9508407a6eccb191d8da3286f4173697cf95604e9ea192fe5ab7c862b5221f6610ced846001612677565b60408051918252346020830152429082015260600160405180910390a350565b610d1561172a565b8051610d2890600b906020840190612075565b5050565b610d676040518060a001604052806000815260200160006001600160a01b031681526020016000815260200160608152602001600081525090565b6011610d746001846126ab565b81548110610d8457610d8461264b565b90600052602060002090600502016040518060a0016040529081600082015481526020016001820160009054906101000a90046001600160a01b03166001600160a01b03166001600160a01b0316815260200160028201548152602001600382018054610df0906124ff565b80601f0160208091040260200160405190810160405280929190818152602001828054610e1c906124ff565b8015610e695780601f10610e3e57610100808354040283529160200191610e69565b820191906000526020600020905b815481529060010190602001808311610e4c57829003601f168201915b505050505081526020016004820154815250509050919050565b6000818152600260205260408120546001600160a01b0316806106445760405162461bcd60e51b8152602060048201526018602482015277115490cdcc8c4e881a5b9d985b1a59081d1bdad95b88125160421b6044820152606401610806565b60006001600160a01b038216610f4d5760405162461bcd60e51b815260206004820152602960248201527f4552433732313a2061646472657373207a65726f206973206e6f7420612076616044820152683634b21037bbb732b960b91b6064820152608401610806565b506001600160a01b031660009081526003602052604090205490565b610f7161172a565b610f7b6000611784565b565b610f8561172a565b6000826001600160a01b03168260405160006040518083038185875af1925050503d8060008114610fd2576040519150601f19603f3d011682016040523d82523d6000602084013e610fd7565b606091505b50509050806108a75760405162461bcd60e51b815260206004820152600f60248201526e151c985b9cd9995c8819985a5b1959608a1b6044820152606401610806565b611023336108b1565b61103f5760405162461bcd60e51b8152600401610806906126c2565b6110493382611710565b50565b6060600180546106e7906124ff565b610d283383836117d6565b61106f336108b1565b61108b5760405162461bcd60e51b8152600401610806906126c2565b611049816118a5565b61109e3383611474565b6110ba5760405162461bcd60e51b81526004016108069061253a565b6110c684848484611948565b50505050565b6110d461172a565b6010805460ff1916911515919091179055565b600d8054610657906124ff565b6000818152600260205260409020546060906001600160a01b03166111735760405162461bcd60e51b815260206004820152602f60248201527f4552433732314d657461646174613a2055524920717565727920666f72206e6f60448201526e3732bc34b9ba32b73a103a37b5b2b760891b6064820152608401610806565b600061117d611664565b9050600081511161119d57604051806020016040528060008152506109ce565b806111a784611673565b600d6040516020016109be93929190612587565b60606011805480602002602001604051908101604052809291908181526020016000905b828210156112d85760008481526020908190206040805160a081018252600586029092018054835260018101546001600160a01b03169383019390935260028301549082015260038201805491929160608401919061123d906124ff565b80601f0160208091040260200160405190810160405280929190818152602001828054611269906124ff565b80156112b65780601f1061128b576101008083540402835291602001916112b6565b820191906000526020600020905b81548152906001019060200180831161129957829003601f168201915b50505050508152602001600482015481525050815260200190600101906111df565b50505050905090565b6112e961172a565b6001600160a01b03811661134e5760405162461bcd60e51b815260206004820152602660248201527f4f776e61626c653a206e6577206f776e657220697320746865207a65726f206160448201526564647265737360d01b6064820152608401610806565b61104981611784565b60006001600160e01b031982166380ac58cd60e01b148061138857506001600160e01b03198216635b5e139f60e01b145b8061064457506301ffc9a760e01b6001600160e01b0319831614610644565b6000818152600260205260409020546001600160a01b03166110495760405162461bcd60e51b8152602060048201526018602482015277115490cdcc8c4e881a5b9d985b1a59081d1bdad95b88125160421b6044820152606401610806565b600081815260046020526040902080546001600160a01b0319166001600160a01b038416908117909155819061143b82610e83565b6001600160a01b03167f8c5be1e5ebec7d5bd14f71427d1e84f3dd0314c0f7b2291e5b200ac8c7c3b92560405160405180910390a45050565b60008061148083610e83565b9050806001600160a01b0316846001600160a01b031614806114c757506001600160a01b0380821660009081526005602090815260408083209388168352929052205460ff165b806114eb5750836001600160a01b03166114e08461076a565b6001600160a01b0316145b949350505050565b826001600160a01b031661150682610e83565b6001600160a01b03161461152c5760405162461bcd60e51b815260040161080690612713565b6001600160a01b03821661158e5760405162461bcd60e51b8152602060048201526024808201527f4552433732313a207472616e7366657220746f20746865207a65726f206164646044820152637265737360e01b6064820152608401610806565b61159b838383600161197b565b826001600160a01b03166115ae82610e83565b6001600160a01b0316146115d45760405162461bcd60e51b815260040161080690612713565b600081815260046020908152604080832080546001600160a01b03199081169091556001600160a01b0387811680865260038552838620805460001901905590871680865283862080546001019055868652600290945282852080549092168417909155905184937fddf252ad1be2c89b69c2b068fc378daa952ba7f163c4a11628f55a4df523b3ef91a4505050565b6060600b80546106e7906124ff565b6060600061168083611abb565b600101905060008167ffffffffffffffff8111156116a0576116a0612247565b6040519080825280601f01601f1916602001820160405280156116ca576020820181803683370190505b5090508181016020015b600019016f181899199a1a9b1b9c1cb0b131b232b360811b600a86061a8153600a850494508461170357611708565b6116d4565b509392505050565b610d28828260405180602001604052806000815250611b93565b600a546001600160a01b03163314610f7b5760405162461bcd60e51b815260206004820181905260248201527f4f776e61626c653a2063616c6c6572206973206e6f7420746865206f776e65726044820152606401610806565b600a80546001600160a01b038381166001600160a01b0319831681179093556040519116919082907f8be0079c531659141344cd1fd0a4f28419497f9722a3daafe3b4186f6b6457e090600090a35050565b816001600160a01b0316836001600160a01b031614156118385760405162461bcd60e51b815260206004820152601960248201527f4552433732313a20617070726f766520746f2063616c6c6572000000000000006044820152606401610806565b6001600160a01b03838116600081815260056020908152604080832094871680845294825291829020805460ff191686151590811790915591519182527f17307eab39ab6107e8899845ad3d59bd9653f200f220920489ca2b5937696c31910160405180910390a3505050565b60006118b082610e83565b90506118c081600084600161197b565b6118c982610e83565b600083815260046020908152604080832080546001600160a01b03199081169091556001600160a01b0385168085526003845282852080546000190190558785526002909352818420805490911690555192935084927fddf252ad1be2c89b69c2b068fc378daa952ba7f163c4a11628f55a4df523b3ef908390a45050565b6119538484846114f3565b61195f84848484611bc6565b6110c65760405162461bcd60e51b815260040161080690612758565b61198784848484611cc4565b60018111156119f65760405162461bcd60e51b815260206004820152603560248201527f455243373231456e756d657261626c653a20636f6e7365637574697665207472604482015274185b9cd9995c9cc81b9bdd081cdd5c1c1bdc9d1959605a1b6064820152608401610806565b816001600160a01b038516611a5257611a4d81600880546000838152600960205260408120829055600182018355919091527ff3f7a9fe364faab93b216da50a3214154f22a0a2b415b23a84c8169e8b636ee30155565b611a75565b836001600160a01b0316856001600160a01b031614611a7557611a758582611d4c565b6001600160a01b038416611a9157611a8c81611de9565b611ab4565b846001600160a01b0316846001600160a01b031614611ab457611ab48482611e98565b5050505050565b60008072184f03e93ff9f4daa797ed6e38ed64bf6a1f0160401b8310611afa5772184f03e93ff9f4daa797ed6e38ed64bf6a1f0160401b830492506040015b6d04ee2d6d415b85acef81000000008310611b26576d04ee2d6d415b85acef8100000000830492506020015b662386f26fc100008310611b4457662386f26fc10000830492506010015b6305f5e1008310611b5c576305f5e100830492506008015b6127108310611b7057612710830492506004015b60648310611b82576064830492506002015b600a83106106445760010192915050565b611b9d8383611edc565b611baa6000848484611bc6565b6108a75760405162461bcd60e51b815260040161080690612758565b60006001600160a01b0384163b15611cb957604051630a85bd0160e11b81526001600160a01b0385169063150b7a0290611c0a9033908990889088906004016127aa565b6020604051808303816000875af1925050508015611c45575060408051601f3d908101601f19168201909252611c42918101906127e7565b60015b611c9f573d808015611c73576040519150601f19603f3d011682016040523d82523d6000602084013e611c78565b606091505b508051611c975760405162461bcd60e51b815260040161080690612758565b805181602001fd5b6001600160e01b031916630a85bd0160e11b1490506114eb565b506001949350505050565b60018111156110c6576001600160a01b03841615611d0a576001600160a01b03841660009081526003602052604081208054839290611d049084906126ab565b90915550505b6001600160a01b038316156110c6576001600160a01b03831660009081526003602052604081208054839290611d41908490612677565b909155505050505050565b60006001611d5984610ee3565b611d6391906126ab565b600083815260076020526040902054909150808214611db6576001600160a01b03841660009081526006602090815260408083208584528252808320548484528184208190558352600790915290208190555b5060009182526007602090815260408084208490556001600160a01b039094168352600681528383209183525290812055565b600854600090611dfb906001906126ab565b60008381526009602052604081205460088054939450909284908110611e2357611e2361264b565b906000526020600020015490508060088381548110611e4457611e4461264b565b6000918252602080832090910192909255828152600990915260408082208490558582528120556008805480611e7c57611e7c612804565b6001900381819060005260206000200160009055905550505050565b6000611ea383610ee3565b6001600160a01b039093166000908152600660209081526040808320868452825280832085905593825260079052919091209190915550565b6001600160a01b038216611f325760405162461bcd60e51b815260206004820181905260248201527f4552433732313a206d696e7420746f20746865207a65726f20616464726573736044820152606401610806565b6000818152600260205260409020546001600160a01b031615611f975760405162461bcd60e51b815260206004820152601c60248201527f4552433732313a20746f6b656e20616c7265616479206d696e746564000000006044820152606401610806565b611fa560008383600161197b565b6000818152600260205260409020546001600160a01b03161561200a5760405162461bcd60e51b815260206004820152601c60248201527f4552433732313a20746f6b656e20616c7265616479206d696e746564000000006044820152606401610806565b6001600160a01b038216600081815260036020908152604080832080546001019055848352600290915280822080546001600160a01b0319168417905551839291907fddf252ad1be2c89b69c2b068fc378daa952ba7f163c4a11628f55a4df523b3ef908290a45050565b828054612081906124ff565b90600052602060002090601f0160209004810192826120a357600085556120e9565b82601f106120bc57805160ff19168380011785556120e9565b828001600101855582156120e9579182015b828111156120e95782518255916020019190600101906120ce565b506120f59291506120f9565b5090565b5b808211156120f557600081556001016120fa565b6001600160e01b03198116811461104957600080fd5b60006020828403121561213657600080fd5b81356109ce8161210e565b60005b8381101561215c578181015183820152602001612144565b838111156110c65750506000910152565b60008151808452612185816020860160208601612141565b601f01601f19169290920160200192915050565b6020815260006109ce602083018461216d565b6000602082840312156121be57600080fd5b5035919050565b80356001600160a01b03811681146121dc57600080fd5b919050565b600080604083850312156121f457600080fd5b6121fd836121c5565b946020939093013593505050565b60008060006060848603121561222057600080fd5b612229846121c5565b9250612237602085016121c5565b9150604084013590509250925092565b634e487b7160e01b600052604160045260246000fd5b600067ffffffffffffffff8084111561227857612278612247565b604051601f8501601f19908116603f011681019082821181831017156122a0576122a0612247565b816040528093508581528686860111156122b957600080fd5b858560208301376000602087830101525050509392505050565b6000602082840312156122e557600080fd5b813567ffffffffffffffff8111156122fc57600080fd5b8201601f8101841361230d57600080fd5b6114eb8482356020840161225d565b8051825260018060a01b036020820151166020830152604081015160408301526000606082015160a0606085015261235760a085018261216d565b608093840151949093019390935250919050565b6020815260006109ce602083018461231c565b60006020828403121561239057600080fd5b6109ce826121c5565b803580151581146121dc57600080fd5b600080604083850312156123bc57600080fd5b6123c5836121c5565b91506123d360208401612399565b90509250929050565b600080600080608085870312156123f257600080fd5b6123fb856121c5565b9350612409602086016121c5565b925060408501359150606085013567ffffffffffffffff81111561242c57600080fd5b8501601f8101871361243d57600080fd5b61244c8782356020840161225d565b91505092959194509250565b60006020828403121561246a57600080fd5b6109ce82612399565b6000602080830181845280855180835260408601915060408160051b870101925083870160005b828110156124c857603f198886030184526124b685835161231c565b9450928501929085019060010161249a565b5092979650505050505050565b600080604083850312156124e857600080fd5b6124f1836121c5565b91506123d3602084016121c5565b600181811c9082168061251357607f821691505b6020821081141561253457634e487b7160e01b600052602260045260246000fd5b50919050565b6020808252602d908201527f4552433732313a2063616c6c6572206973206e6f7420746f6b656e206f776e6560408201526c1c881bdc88185c1c1c9bdd9959609a1b606082015260800190565b60008451602061259a8285838a01612141565b8551918401916125ad8184848a01612141565b8554920191600090600181811c90808316806125ca57607f831692505b8583108114156125e857634e487b7160e01b85526022600452602485fd5b8080156125fc576001811461260d5761263a565b60ff1985168852838801955061263a565b60008b81526020902060005b858110156126325781548a820152908401908801612619565b505083880195505b50939b9a5050505050505050505050565b634e487b7160e01b600052603260045260246000fd5b634e487b7160e01b600052601160045260246000fd5b6000821982111561268a5761268a612661565b500190565b600082516126a1818460208701612141565b9190910192915050565b6000828210156126bd576126bd612661565b500390565b60208082526031908201527f4552433732313a207472616e736665722063616c6c6572206973206e6f74206f6040820152701ddb995c881b9bdc88185c1c1c9bdd9959607a1b606082015260800190565b60208082526025908201527f4552433732313a207472616e736665722066726f6d20696e636f72726563742060408201526437bbb732b960d91b606082015260800190565b60208082526032908201527f4552433732313a207472616e7366657220746f206e6f6e20455243373231526560408201527131b2b4bb32b91034b6b83632b6b2b73a32b960711b606082015260800190565b6001600160a01b03858116825284166020820152604081018390526080606082018190526000906127dd9083018461216d565b9695505050505050565b6000602082840312156127f957600080fd5b81516109ce8161210e565b634e487b7160e01b600052603160045260246000fdfea2646970667358221220b9adbfe6fccb3f20e33726a372768ef976775f1bcb06bffda63ff3384b9f80b364736f6c634300080b0033",
  "linkReferences": {},
  "deployedLinkReferences": {}
}